{
  "_format": "hh-sol-artifact-1",
  "contractName": "Maven",
  "sourceName": "contracts/Maven.sol",
  "abi": [
    {
      "inputs": [
        {
          "internalType": "address",
          "name": "_linkTokenAddress",
          "type": "address"
        }
      ],
      "stateMutability": "nonpayable",
      "type": "constructor"
    },
    {
      "anonymous": false,
      "inputs": [
        {
          "indexed": true,
          "internalType": "bytes32",
          "name": "id",
          "type": "bytes32"
        }
      ],
      "name": "ChainlinkCancelled",
      "type": "event"
    },
    {
      "anonymous": false,
      "inputs": [
        {
          "indexed": true,
          "internalType": "bytes32",
          "name": "id",
          "type": "bytes32"
        }
      ],
      "name": "ChainlinkFulfilled",
      "type": "event"
    },
    {
      "anonymous": false,
      "inputs": [
        {
          "indexed": true,
          "internalType": "bytes32",
          "name": "id",
          "type": "bytes32"
        }
      ],
      "name": "ChainlinkRequested",
      "type": "event"
    },
    {
      "anonymous": false,
      "inputs": [
        {
          "indexed": true,
          "internalType": "address",
          "name": "from",
          "type": "address"
        },
        {
          "indexed": true,
          "internalType": "address",
          "name": "to",
          "type": "address"
        }
      ],
      "name": "OwnershipTransferRequested",
      "type": "event"
    },
    {
      "anonymous": false,
      "inputs": [
        {
          "indexed": true,
          "internalType": "address",
          "name": "from",
          "type": "address"
        },
        {
          "indexed": true,
          "internalType": "address",
          "name": "to",
          "type": "address"
        }
      ],
      "name": "OwnershipTransferred",
      "type": "event"
    },
    {
      "anonymous": false,
      "inputs": [
        {
          "indexed": true,
          "internalType": "bytes32",
          "name": "requestId",
          "type": "bytes32"
        },
        {
          "indexed": true,
          "internalType": "uint256",
          "name": "response",
          "type": "uint256"
        }
      ],
      "name": "RequestForInfoFulfilled",
      "type": "event"
    },
    {
      "inputs": [],
      "name": "acceptOwnership",
      "outputs": [],
      "stateMutability": "nonpayable",
      "type": "function"
    },
    {
      "inputs": [
        {
          "internalType": "address",
          "name": "",
          "type": "address"
        }
      ],
      "name": "agencyAddress",
      "outputs": [
        {
          "internalType": "string",
          "name": "",
          "type": "string"
        }
      ],
      "stateMutability": "view",
      "type": "function"
    },
    {
      "inputs": [
        {
          "internalType": "address",
          "name": "_agencyAddress",
          "type": "address"
        },
        {
          "internalType": "string",
          "name": "_agencyName",
          "type": "string"
        }
      ],
      "name": "allowAgencyAddress",
      "outputs": [],
      "stateMutability": "nonpayable",
      "type": "function"
    },
    {
      "inputs": [
        {
          "internalType": "bytes32",
          "name": "_requestId",
          "type": "bytes32"
        },
        {
          "internalType": "uint256",
          "name": "_payment",
          "type": "uint256"
        },
        {
          "internalType": "bytes4",
          "name": "_callbackFunctionId",
          "type": "bytes4"
        },
        {
          "internalType": "uint256",
          "name": "_expiration",
          "type": "uint256"
        }
      ],
      "name": "cancelRequest",
      "outputs": [],
      "stateMutability": "nonpayable",
      "type": "function"
    },
    {
      "inputs": [
        {
          "internalType": "address",
          "name": "_agencyAddress",
          "type": "address"
        }
      ],
      "name": "checkAgency",
      "outputs": [
        {
          "internalType": "string",
          "name": "",
          "type": "string"
        }
      ],
      "stateMutability": "view",
      "type": "function"
    },
    {
      "inputs": [
        {
          "internalType": "uint256",
          "name": "_dealId",
          "type": "uint256"
        }
      ],
      "name": "checkAgencyProgress",
      "outputs": [],
      "stateMutability": "nonpayable",
      "type": "function"
    },
    {
      "inputs": [
        {
          "internalType": "address",
          "name": "_oracle",
          "type": "address"
        },
        {
          "internalType": "string",
          "name": "_jobId",
          "type": "string"
        },
        {
          "internalType": "string",
          "name": "_lensProfileId",
          "type": "string"
        }
      ],
      "name": "checkProfilePosts",
      "outputs": [],
      "stateMutability": "nonpayable",
      "type": "function"
    },
    {
      "inputs": [],
      "name": "contractBalances",
      "outputs": [
        {
          "internalType": "uint256",
          "name": "eth",
          "type": "uint256"
        },
        {
          "internalType": "uint256",
          "name": "link",
          "type": "uint256"
        }
      ],
      "stateMutability": "view",
      "type": "function"
    },
    {
      "inputs": [],
      "name": "dealCounter",
      "outputs": [
        {
          "internalType": "uint256",
          "name": "",
          "type": "uint256"
        }
      ],
      "stateMutability": "view",
      "type": "function"
    },
    {
      "inputs": [
        {
          "internalType": "uint256",
          "name": "",
          "type": "uint256"
        }
      ],
      "name": "deals",
      "outputs": [
        {
          "internalType": "uint256",
          "name": "dealId",
          "type": "uint256"
        },
        {
          "internalType": "address",
          "name": "client",
          "type": "address"
        },
        {
          "internalType": "address",
          "name": "contractingAgency",
          "type": "address"
        },
        {
          "internalType": "uint256",
          "name": "dealAmount",
          "type": "uint256"
        },
        {
          "internalType": "uint256",
          "name": "requiredNumberOfPosts",
          "type": "uint256"
        },
        {
          "internalType": "bool",
          "name": "startDeal",
          "type": "bool"
        },
        {
          "internalType": "bool",
          "name": "isDealCancelled",
          "type": "bool"
        },
        {
          "internalType": "bool",
          "name": "isDealDone",
          "type": "bool"
        },
        {
          "internalType": "string",
          "name": "lensProfileId",
          "type": "string"
        },
        {
          "internalType": "uint256",
          "name": "numberOfAgencyPosts",
          "type": "uint256"
        },
        {
          "internalType": "uint256",
          "name": "postsBeforeContract",
          "type": "uint256"
        }
      ],
      "stateMutability": "view",
      "type": "function"
    },
    {
      "inputs": [
        {
          "internalType": "uint256",
          "name": "_dealId",
          "type": "uint256"
        }
      ],
      "name": "fulfillDeal",
      "outputs": [],
      "stateMutability": "nonpayable",
      "type": "function"
    },
    {
      "inputs": [
        {
          "internalType": "bytes32",
          "name": "_requestId",
          "type": "bytes32"
        },
        {
          "internalType": "uint256",
          "name": "_info",
          "type": "uint256"
        }
      ],
      "name": "fulfillRequestInfo",
      "outputs": [],
      "stateMutability": "nonpayable",
      "type": "function"
    },
    {
      "inputs": [],
      "name": "lastRetrievedInfo",
      "outputs": [
        {
          "internalType": "uint256",
          "name": "",
          "type": "uint256"
        }
      ],
      "stateMutability": "view",
      "type": "function"
    },
    {
      "inputs": [],
      "name": "owner",
      "outputs": [
        {
          "internalType": "address",
          "name": "",
          "type": "address"
        }
      ],
      "stateMutability": "view",
      "type": "function"
    },
    {
      "inputs": [
        {
          "internalType": "uint256",
          "name": "_dealId",
          "type": "uint256"
        }
      ],
      "name": "revokeDeal",
      "outputs": [],
      "stateMutability": "nonpayable",
      "type": "function"
    },
    {
      "inputs": [
        {
          "internalType": "address",
          "name": "_agency",
          "type": "address"
        },
        {
          "internalType": "uint256",
          "name": "_amount",
          "type": "uint256"
        },
        {
          "internalType": "uint256",
          "name": "_requiredNumberOfPosts",
          "type": "uint256"
        },
        {
          "internalType": "string",
          "name": "_lensProfileId",
          "type": "string"
        }
      ],
      "name": "startDeal",
      "outputs": [],
      "stateMutability": "payable",
      "type": "function"
    },
    {
      "inputs": [
        {
          "internalType": "address",
          "name": "to",
          "type": "address"
        }
      ],
      "name": "transferOwnership",
      "outputs": [],
      "stateMutability": "nonpayable",
      "type": "function"
    },
    {
      "inputs": [],
      "name": "withdrawBalance",
      "outputs": [],
      "stateMutability": "nonpayable",
      "type": "function"
    },
    {
      "inputs": [],
      "name": "withdrawLink",
      "outputs": [],
      "stateMutability": "nonpayable",
      "type": "function"
    }
  ],
  "bytecode": "0x608060405260016004553480156200001657600080fd5b50604051620038a8380380620038a883398181016040528101906200003c919062000335565b338060008073ffffffffffffffffffffffffffffffffffffffff168273ffffffffffffffffffffffffffffffffffffffff161415620000b2576040517f08c379a0000000000000000000000000000000000000000000000000000000008152600401620000a990620003c8565b60405180910390fd5b81600660006101000a81548173ffffffffffffffffffffffffffffffffffffffff021916908373ffffffffffffffffffffffffffffffffffffffff160217905550600073ffffffffffffffffffffffffffffffffffffffff168173ffffffffffffffffffffffffffffffffffffffff16146200013a5762000139816200015560201b60201c565b5b5050506200014e816200028760201b60201c565b506200045c565b3373ffffffffffffffffffffffffffffffffffffffff168173ffffffffffffffffffffffffffffffffffffffff161415620001c7576040517f08c379a0000000000000000000000000000000000000000000000000000000008152600401620001be906200043a565b60405180910390fd5b80600760006101000a81548173ffffffffffffffffffffffffffffffffffffffff021916908373ffffffffffffffffffffffffffffffffffffffff1602179055508073ffffffffffffffffffffffffffffffffffffffff16600660009054906101000a900473ffffffffffffffffffffffffffffffffffffffff1673ffffffffffffffffffffffffffffffffffffffff167fed8889f560326eb138920d842192f0eb3dd22b4f139c87a2c57538e05bae127860405160405180910390a350565b80600260006101000a81548173ffffffffffffffffffffffffffffffffffffffff021916908373ffffffffffffffffffffffffffffffffffffffff16021790555050565b600080fd5b600073ffffffffffffffffffffffffffffffffffffffff82169050919050565b6000620002fd82620002d0565b9050919050565b6200030f81620002f0565b81146200031b57600080fd5b50565b6000815190506200032f8162000304565b92915050565b6000602082840312156200034e576200034d620002cb565b5b60006200035e848285016200031e565b91505092915050565b600082825260208201905092915050565b7f43616e6e6f7420736574206f776e657220746f207a65726f0000000000000000600082015250565b6000620003b060188362000367565b9150620003bd8262000378565b602082019050919050565b60006020820190508181036000830152620003e381620003a1565b9050919050565b7f43616e6e6f74207472616e7366657220746f2073656c66000000000000000000600082015250565b60006200042260178362000367565b91506200042f82620003ea565b602082019050919050565b60006020820190508181036000830152620004558162000413565b9050919050565b61343c806200046c6000396000f3fe6080604052600436106101145760003560e01c80638dc654a2116100a0578063b451b80511610064578063b451b80514610363578063d40ffd321461038c578063ec65d0f8146103b5578063f2fde38b146103de578063f9ae73a81461040757610114565b80638dc654a21461029f57806392bb9e18146102b65780639ae4586c146102e1578063a760d9481461030a578063acf2a11f1461034757610114565b806358088d8d116100e757806358088d8d146101e05780635fd8c7101461020957806379ba50971461022057806383777b39146102375780638da5cb5b1461027457610114565b806303988f84146101195780632163885a14610160578063217328b61461018c5780634642b607146101b7575b600080fd5b34801561012557600080fd5b50610140600480360381019061013b919061211d565b610430565b6040516101579b9a9998979695949392919061224e565b60405180910390f35b34801561016c57600080fd5b50610175610579565b604051610183929190612300565b60405180910390f35b34801561019857600080fd5b506101a161061b565b6040516101ae9190612329565b60405180910390f35b3480156101c357600080fd5b506101de60048036038101906101d991906124a5565b610621565b005b3480156101ec57600080fd5b506102076004803603810190610202919061211d565b610679565b005b34801561021557600080fd5b5061021e61078c565b005b34801561022c57600080fd5b506102356107dd565b005b34801561024357600080fd5b5061025e60048036038101906102599190612501565b610974565b60405161026b919061252e565b60405180910390f35b34801561028057600080fd5b50610289610a14565b6040516102969190612550565b60405180910390f35b3480156102ab57600080fd5b506102b4610a3e565b005b3480156102c257600080fd5b506102cb610ba9565b6040516102d89190612329565b60405180910390f35b3480156102ed57600080fd5b506103086004803603810190610303919061211d565b610baf565b005b34801561031657600080fd5b50610331600480360381019061032c9190612501565b610c98565b60405161033e919061252e565b60405180910390f35b610361600480360381019061035c919061256b565b610df8565b005b34801561036f57600080fd5b5061038a600480360381019061038591906125ee565b610f57565b005b34801561039857600080fd5b506103b360048036038101906103ae919061211d565b61106b565b005b3480156103c157600080fd5b506103dc60048036038101906103d79190612707565b611106565b005b3480156103ea57600080fd5b5061040560048036038101906104009190612501565b611120565b005b34801561041357600080fd5b5061042e6004803603810190610429919061276e565b611134565b005b600a6020528060005260406000206000915090508060000154908060010160009054906101000a900473ffffffffffffffffffffffffffffffffffffffff16908060020160009054906101000a900473ffffffffffffffffffffffffffffffffffffffff16908060030154908060040154908060050160009054906101000a900460ff16908060050160019054906101000a900460ff16908060050160029054906101000a900460ff16908060060180546104ea906127dd565b80601f0160208091040260200160405190810160405280929190818152602001828054610516906127dd565b80156105635780601f1061053857610100808354040283529160200191610563565b820191906000526020600020905b81548152906001019060200180831161054657829003601f168201915b505050505090806007015490806008015490508b565b6000804791506000610589611273565b90508073ffffffffffffffffffffffffffffffffffffffff166370a08231306040518263ffffffff1660e01b81526004016105c49190612550565b60206040518083038186803b1580156105dc57600080fd5b505afa1580156105f0573d6000803e3d6000fd5b505050506040513d601f19601f820116820180604052508101906106149190612824565b9150509091565b600b5481565b80600960008473ffffffffffffffffffffffffffffffffffffffff1673ffffffffffffffffffffffffffffffffffffffff1681526020019081526020016000209080519060200190610674929190611fa9565b505050565b6000600a600083815260200190815260200160002090508060050160009054906101000a900460ff166106e1576040517f08c379a00000000000000000000000000000000000000000000000000000000081526004016106d8906128c3565b60405180910390fd5b8060050160019054906101000a900460ff1615610733576040517f08c379a000000000000000000000000000000000000000000000000000000000815260040161072a9061292f565b60405180910390fd5b60018160050160016101000a81548160ff02191690831515021790555060008160010160009054906101000a900473ffffffffffffffffffffffffffffffffffffffff16905061078781836003015461129d565b505050565b61079461132b565b3373ffffffffffffffffffffffffffffffffffffffff166108fc479081150290604051600060405180830381858888f193505050501580156107da573d6000803e3d6000fd5b50565b600760009054906101000a900473ffffffffffffffffffffffffffffffffffffffff1673ffffffffffffffffffffffffffffffffffffffff163373ffffffffffffffffffffffffffffffffffffffff161461086d576040517f08c379a00000000000000000000000000000000000000000000000000000000081526004016108649061299b565b60405180910390fd5b6000600660009054906101000a900473ffffffffffffffffffffffffffffffffffffffff16905033600660006101000a81548173ffffffffffffffffffffffffffffffffffffffff021916908373ffffffffffffffffffffffffffffffffffffffff1602179055506000600760006101000a81548173ffffffffffffffffffffffffffffffffffffffff021916908373ffffffffffffffffffffffffffffffffffffffff1602179055503373ffffffffffffffffffffffffffffffffffffffff168173ffffffffffffffffffffffffffffffffffffffff167f8be0079c531659141344cd1fd0a4f28419497f9722a3daafe3b4186f6b6457e060405160405180910390a350565b60096020528060005260406000206000915090508054610993906127dd565b80601f01602080910402602001604051908101604052809291908181526020018280546109bf906127dd565b8015610a0c5780601f106109e157610100808354040283529160200191610a0c565b820191906000526020600020905b8154815290600101906020018083116109ef57829003601f168201915b505050505081565b6000600660009054906101000a900473ffffffffffffffffffffffffffffffffffffffff16905090565b610a4661132b565b6000610a50611273565b90508073ffffffffffffffffffffffffffffffffffffffff1663a9059cbb338373ffffffffffffffffffffffffffffffffffffffff166370a08231306040518263ffffffff1660e01b8152600401610aa89190612550565b60206040518083038186803b158015610ac057600080fd5b505afa158015610ad4573d6000803e3d6000fd5b505050506040513d601f19601f82011682018060405250810190610af89190612824565b6040518363ffffffff1660e01b8152600401610b159291906129bb565b602060405180830381600087803b158015610b2f57600080fd5b505af1158015610b43573d6000803e3d6000fd5b505050506040513d601f19601f82011682018060405250810190610b679190612a10565b610ba6576040517f08c379a0000000000000000000000000000000000000000000000000000000008152600401610b9d90612a89565b60405180910390fd5b50565b60085481565b6000600a600083815260200190815260200160002090508060050160009054906101000a900460ff16610c17576040517f08c379a0000000000000000000000000000000000000000000000000000000008152600401610c0e906128c3565b60405180910390fd5b8060050160019054906101000a900460ff1615610c69576040517f08c379a0000000000000000000000000000000000000000000000000000000008152600401610c609061292f565b60405180910390fd5b60018160050160016101000a81548160ff021916908315150217905550610c948282600301546113bd565b5050565b60606000600960008473ffffffffffffffffffffffffffffffffffffffff1673ffffffffffffffffffffffffffffffffffffffff1681526020019081526020016000208054610ce6906127dd565b90501415610d29576040517f08c379a0000000000000000000000000000000000000000000000000000000008152600401610d2090612af5565b60405180910390fd5b600960008373ffffffffffffffffffffffffffffffffffffffff1673ffffffffffffffffffffffffffffffffffffffff1681526020019081526020016000208054610d73906127dd565b80601f0160208091040260200160405190810160405280929190818152602001828054610d9f906127dd565b8015610dec5780601f10610dc157610100808354040283529160200191610dec565b820191906000526020600020905b815481529060010190602001808311610dcf57829003601f168201915b50505050509050919050565b82341015610e3b576040517f08c379a0000000000000000000000000000000000000000000000000000000008152600401610e3290612b61565b60405180910390fd5b600b6000815480929190610e4e90612bb0565b91905055506000600a6000600b5481526020019081526020016000209050600b548160000181905550338160010160006101000a81548173ffffffffffffffffffffffffffffffffffffffff021916908373ffffffffffffffffffffffffffffffffffffffff160217905550848160020160006101000a81548173ffffffffffffffffffffffffffffffffffffffff021916908373ffffffffffffffffffffffffffffffffffffffff16021790555083816003018190555082816004018190555060018160050160006101000a81548160ff02191690831515021790555081816006019080519060200190610f44929190611fa9565b5060085481600801819055505050505050565b610f5f61132b565b6000610f7a610f6d84611530565b63f9ae73a860e01b61155a565b9050610fc66040518060400160405280600981526020017f70726f66696c6549640000000000000000000000000000000000000000000000815250838361158a9092919063ffffffff16565b6110456040518060400160405280600981526020017f6f7065726174696f6e00000000000000000000000000000000000000000000008152506040518060400160405280600b81526020017f6765742d70726f66696c650000000000000000000000000000000000000000008152508361158a9092919063ffffffff16565b6110648482670de0b6b3a7640000600161105f9190612bf9565b6115bd565b5050505050565b6000600a600083815260200190815260200160002090508060050160009054906101000a900460ff166110d3576040517f08c379a00000000000000000000000000000000000000000000000000000000081526004016110ca906128c3565b60405180910390fd5b600081600801546008546110e79190612c53565b90508160040154816110f99190612c53565b8260070181905550505050565b61110e61132b565b61111a84848484611687565b50505050565b61112861132b565b6111318161179a565b50565b816005600082815260200190815260200160002060009054906101000a900473ffffffffffffffffffffffffffffffffffffffff1673ffffffffffffffffffffffffffffffffffffffff163373ffffffffffffffffffffffffffffffffffffffff16146111d6576040517f08c379a00000000000000000000000000000000000000000000000000000000081526004016111cd90612cf9565b60405180910390fd5b6005600082815260200190815260200160002060006101000a81549073ffffffffffffffffffffffffffffffffffffffff0219169055807f7cc135e0cebb02c3480ae5d74d377283180a2601f8f644edf7987b009316c63a60405160405180910390a281837f0d3246c323984532398da5b4e6d0295b5c05feb44bb697c8ad8d2b022c9e60e960405160405180910390a381600881905550505050565b6000600260009054906101000a900473ffffffffffffffffffffffffffffffffffffffff16905090565b804710156112e0576040517f08c379a00000000000000000000000000000000000000000000000000000000081526004016112d790612d65565b60405180910390fd5b8173ffffffffffffffffffffffffffffffffffffffff166108fc829081150290604051600060405180830381858888f19350505050158015611326573d6000803e3d6000fd5b505050565b600660009054906101000a900473ffffffffffffffffffffffffffffffffffffffff1673ffffffffffffffffffffffffffffffffffffffff163373ffffffffffffffffffffffffffffffffffffffff16146113bb576040517f08c379a00000000000000000000000000000000000000000000000000000000081526004016113b290612dd1565b60405180910390fd5b565b6000600a600084815260200190815260200160002090508060050160009054906101000a900460ff16611425576040517f08c379a000000000000000000000000000000000000000000000000000000000815260040161141c906128c3565b60405180910390fd5b8060040154816008015460085461143c9190612c53565b101561147d576040517f08c379a000000000000000000000000000000000000000000000000000000000815260040161147490612e63565b60405180910390fd5b814710156114c0576040517f08c379a00000000000000000000000000000000000000000000000000000000081526004016114b790612d65565b60405180910390fd5b8060020160009054906101000a900473ffffffffffffffffffffffffffffffffffffffff1673ffffffffffffffffffffffffffffffffffffffff166108fc839081150290604051600060405180830381858888f1935050505015801561152a573d6000803e3d6000fd5b50505050565b60008082905060008151141561154c576000801b915050611555565b60208301519150505b919050565b61156261202f565b61156a61202f565b611581843085846118c9909392919063ffffffff16565b91505092915050565b6115a182846080015161197990919063ffffffff16565b6115b881846080015161197990919063ffffffff16565b505050565b60008060045490506001816115d29190612e83565b6004819055506000633c6d41b960e01b600080876000015188604001518660028b60800151600001516040516024016116119796959493929190612f4c565b604051602081830303815290604052907bffffffffffffffffffffffffffffffffffffffffffffffffffffffff19166020820180517bffffffffffffffffffffffffffffffffffffffffffffffffffffffff8381831617835250505050905061167c8683868461199e565b925050509392505050565b60006005600086815260200190815260200160002060009054906101000a900473ffffffffffffffffffffffffffffffffffffffff1690506005600086815260200190815260200160002060006101000a81549073ffffffffffffffffffffffffffffffffffffffff0219169055847fe1fe3afa0f7f761ff0a8b89086790efd5140d2907ebd5b7ff6bfcb5e075fd4c560405160405180910390a28073ffffffffffffffffffffffffffffffffffffffff16636ee4d553868686866040518563ffffffff1660e01b81526004016117619493929190612fc2565b600060405180830381600087803b15801561177b57600080fd5b505af115801561178f573d6000803e3d6000fd5b505050505050505050565b3373ffffffffffffffffffffffffffffffffffffffff168173ffffffffffffffffffffffffffffffffffffffff161415611809576040517f08c379a000000000000000000000000000000000000000000000000000000000815260040161180090613053565b60405180910390fd5b80600760006101000a81548173ffffffffffffffffffffffffffffffffffffffff021916908373ffffffffffffffffffffffffffffffffffffffff1602179055508073ffffffffffffffffffffffffffffffffffffffff16600660009054906101000a900473ffffffffffffffffffffffffffffffffffffffff1673ffffffffffffffffffffffffffffffffffffffff167fed8889f560326eb138920d842192f0eb3dd22b4f139c87a2c57538e05bae127860405160405180910390a350565b6118d161202f565b6118e18560800151610100611b42565b508385600001818152505082856020019073ffffffffffffffffffffffffffffffffffffffff16908173ffffffffffffffffffffffffffffffffffffffff16815250508185604001907bffffffffffffffffffffffffffffffffffffffffffffffffffffffff191690817bffffffffffffffffffffffffffffffffffffffffffffffffffffffff191681525050849050949350505050565b6119868260038351611bac565b6119998183611d3190919063ffffffff16565b505050565b600030846040516020016119b392919061312c565b604051602081830303815290604052805190602001209050846005600083815260200190815260200160002060006101000a81548173ffffffffffffffffffffffffffffffffffffffff021916908373ffffffffffffffffffffffffffffffffffffffff160217905550807fb5e6e01e79f91267dc17b4e6314d5d4d03593d2ceee0fbb452b750bd70ea5af960405160405180910390a2600260009054906101000a900473ffffffffffffffffffffffffffffffffffffffff1673ffffffffffffffffffffffffffffffffffffffff16634000aea08685856040518463ffffffff1660e01b8152600401611aa993929190613158565b602060405180830381600087803b158015611ac357600080fd5b505af1158015611ad7573d6000803e3d6000fd5b505050506040513d601f19601f82011682018060405250810190611afb9190612a10565b611b3a576040517f08c379a0000000000000000000000000000000000000000000000000000000008152600401611b3190613208565b60405180910390fd5b949350505050565b611b4a61209c565b6000602083611b599190613257565b14611b8557602082611b6b9190613257565b6020611b779190612c53565b82611b829190612e83565b91505b81836020018181525050604051808452600081528281016020016040525082905092915050565b60178167ffffffffffffffff1611611be357611bdd8160058460ff16901b60ff161784611d5390919063ffffffff16565b50611d2c565b60ff8167ffffffffffffffff1611611c3957611c12601860058460ff16901b1784611d5390919063ffffffff16565b50611c338167ffffffffffffffff16600185611d739092919063ffffffff16565b50611d2b565b61ffff8167ffffffffffffffff1611611c9057611c69601960058460ff16901b1784611d5390919063ffffffff16565b50611c8a8167ffffffffffffffff16600285611d739092919063ffffffff16565b50611d2a565b63ffffffff8167ffffffffffffffff1611611ce957611cc2601a60058460ff16901b1784611d5390919063ffffffff16565b50611ce38167ffffffffffffffff16600485611d739092919063ffffffff16565b50611d29565b611d06601b60058460ff16901b1784611d5390919063ffffffff16565b50611d278167ffffffffffffffff16600885611d739092919063ffffffff16565b505b5b5b5b505050565b611d3961209c565b611d4b83846000015151848551611d95565b905092915050565b611d5b61209c565b611d6b8384600001515184611e84565b905092915050565b611d7b61209c565b611d8c848560000151518585611edb565b90509392505050565b611d9d61209c565b8251821115611dab57600080fd5b84602001518285611dbc9190612e83565b1115611df157611df0856002611de188602001518887611ddc9190612e83565b611f69565b611deb9190612bf9565b611f85565b5b600080865180518760208301019350808887011115611e105787860182525b60208701925050505b60208410611e575780518252602082611e329190612e83565b9150602081611e419190612e83565b9050602084611e509190612c53565b9350611e19565b60006001856020036101000a03905080198251168184511681811785525050508692505050949350505050565b611e8c61209c565b83602001518310611eb257611eb18460028660200151611eac9190612bf9565b611f85565b5b8351805160208583010184815381861415611ece576001820183525b5050508390509392505050565b611ee361209c565b84602001518483611ef49190612e83565b1115611f1c57611f1b8560028685611f0c9190612e83565b611f169190612bf9565b611f85565b5b6000600183610100611f2e91906133bb565b611f389190612c53565b90508551838682010185831982511617815281518588011115611f5b5784870182525b505085915050949350505050565b600081831115611f7b57829050611f7f565b8190505b92915050565b600082600001519050611f988383611b42565b50611fa38382611d31565b50505050565b828054611fb5906127dd565b90600052602060002090601f016020900481019282611fd7576000855561201e565b82601f10611ff057805160ff191683800117855561201e565b8280016001018555821561201e579182015b8281111561201d578251825591602001919060010190612002565b5b50905061202b91906120b6565b5090565b6040518060a0016040528060008019168152602001600073ffffffffffffffffffffffffffffffffffffffff16815260200160007bffffffffffffffffffffffffffffffffffffffffffffffffffffffff191681526020016000815260200161209661209c565b81525090565b604051806040016040528060608152602001600081525090565b5b808211156120cf5760008160009055506001016120b7565b5090565b6000604051905090565b600080fd5b600080fd5b6000819050919050565b6120fa816120e7565b811461210557600080fd5b50565b600081359050612117816120f1565b92915050565b600060208284031215612133576121326120dd565b5b600061214184828501612108565b91505092915050565b612153816120e7565b82525050565b600073ffffffffffffffffffffffffffffffffffffffff82169050919050565b600061218482612159565b9050919050565b61219481612179565b82525050565b60008115159050919050565b6121af8161219a565b82525050565b600081519050919050565b600082825260208201905092915050565b60005b838110156121ef5780820151818401526020810190506121d4565b838111156121fe576000848401525b50505050565b6000601f19601f8301169050919050565b6000612220826121b5565b61222a81856121c0565b935061223a8185602086016121d1565b61224381612204565b840191505092915050565b600061016082019050612264600083018e61214a565b612271602083018d61218b565b61227e604083018c61218b565b61228b606083018b61214a565b612298608083018a61214a565b6122a560a08301896121a6565b6122b260c08301886121a6565b6122bf60e08301876121a6565b8181036101008301526122d28186612215565b90506122e261012083018561214a565b6122f061014083018461214a565b9c9b505050505050505050505050565b6000604082019050612315600083018561214a565b612322602083018461214a565b9392505050565b600060208201905061233e600083018461214a565b92915050565b61234d81612179565b811461235857600080fd5b50565b60008135905061236a81612344565b92915050565b600080fd5b600080fd5b7f4e487b7100000000000000000000000000000000000000000000000000000000600052604160045260246000fd5b6123b282612204565b810181811067ffffffffffffffff821117156123d1576123d061237a565b5b80604052505050565b60006123e46120d3565b90506123f082826123a9565b919050565b600067ffffffffffffffff8211156124105761240f61237a565b5b61241982612204565b9050602081019050919050565b82818337600083830152505050565b6000612448612443846123f5565b6123da565b90508281526020810184848401111561246457612463612375565b5b61246f848285612426565b509392505050565b600082601f83011261248c5761248b612370565b5b813561249c848260208601612435565b91505092915050565b600080604083850312156124bc576124bb6120dd565b5b60006124ca8582860161235b565b925050602083013567ffffffffffffffff8111156124eb576124ea6120e2565b5b6124f785828601612477565b9150509250929050565b600060208284031215612517576125166120dd565b5b60006125258482850161235b565b91505092915050565b600060208201905081810360008301526125488184612215565b905092915050565b6000602082019050612565600083018461218b565b92915050565b60008060008060808587031215612585576125846120dd565b5b60006125938782880161235b565b94505060206125a487828801612108565b93505060406125b587828801612108565b925050606085013567ffffffffffffffff8111156125d6576125d56120e2565b5b6125e287828801612477565b91505092959194509250565b600080600060608486031215612607576126066120dd565b5b60006126158682870161235b565b935050602084013567ffffffffffffffff811115612636576126356120e2565b5b61264286828701612477565b925050604084013567ffffffffffffffff811115612663576126626120e2565b5b61266f86828701612477565b9150509250925092565b6000819050919050565b61268c81612679565b811461269757600080fd5b50565b6000813590506126a981612683565b92915050565b60007fffffffff0000000000000000000000000000000000000000000000000000000082169050919050565b6126e4816126af565b81146126ef57600080fd5b50565b600081359050612701816126db565b92915050565b60008060008060808587031215612721576127206120dd565b5b600061272f8782880161269a565b945050602061274087828801612108565b9350506040612751878288016126f2565b925050606061276287828801612108565b91505092959194509250565b60008060408385031215612785576127846120dd565b5b60006127938582860161269a565b92505060206127a485828601612108565b9150509250929050565b7f4e487b7100000000000000000000000000000000000000000000000000000000600052602260045260246000fd5b600060028204905060018216806127f557607f821691505b60208210811415612809576128086127ae565b5b50919050565b60008151905061281e816120f1565b92915050565b60006020828403121561283a576128396120dd565b5b60006128488482850161280f565b91505092915050565b7f4465616c20646f6573206e6f74206578697374206f72206e6f7420737461727460008201527f6564000000000000000000000000000000000000000000000000000000000000602082015250565b60006128ad6022836121c0565b91506128b882612851565b604082019050919050565b600060208201905081810360008301526128dc816128a0565b9050919050565b7f4465616c20697320616c72656164792063616e63656c6c656400000000000000600082015250565b60006129196019836121c0565b9150612924826128e3565b602082019050919050565b600060208201905081810360008301526129488161290c565b9050919050565b7f4d7573742062652070726f706f736564206f776e657200000000000000000000600082015250565b60006129856016836121c0565b91506129908261294f565b602082019050919050565b600060208201905081810360008301526129b481612978565b9050919050565b60006040820190506129d0600083018561218b565b6129dd602083018461214a565b9392505050565b6129ed8161219a565b81146129f857600080fd5b50565b600081519050612a0a816129e4565b92915050565b600060208284031215612a2657612a256120dd565b5b6000612a34848285016129fb565b91505092915050565b7f556e61626c6520746f207472616e73666572204c696e6b000000000000000000600082015250565b6000612a736017836121c0565b9150612a7e82612a3d565b602082019050919050565b60006020820190508181036000830152612aa281612a66565b9050919050565b7f4167656e637920646f6573206e6f742065786973740000000000000000000000600082015250565b6000612adf6015836121c0565b9150612aea82612aa9565b602082019050919050565b60006020820190508181036000830152612b0e81612ad2565b9050919050565b7f496e73756666696369656e74207061796d656e74000000000000000000000000600082015250565b6000612b4b6014836121c0565b9150612b5682612b15565b602082019050919050565b60006020820190508181036000830152612b7a81612b3e565b9050919050565b7f4e487b7100000000000000000000000000000000000000000000000000000000600052601160045260246000fd5b6000612bbb826120e7565b91507fffffffffffffffffffffffffffffffffffffffffffffffffffffffffffffffff821415612bee57612bed612b81565b5b600182019050919050565b6000612c04826120e7565b9150612c0f836120e7565b9250817fffffffffffffffffffffffffffffffffffffffffffffffffffffffffffffffff0483118215151615612c4857612c47612b81565b5b828202905092915050565b6000612c5e826120e7565b9150612c69836120e7565b925082821015612c7c57612c7b612b81565b5b828203905092915050565b7f536f75726365206d75737420626520746865206f7261636c65206f662074686560008201527f2072657175657374000000000000000000000000000000000000000000000000602082015250565b6000612ce36028836121c0565b9150612cee82612c87565b604082019050919050565b60006020820190508181036000830152612d1281612cd6565b9050919050565b7f496e73756666696369656e742062616c616e6365000000000000000000000000600082015250565b6000612d4f6014836121c0565b9150612d5a82612d19565b602082019050919050565b60006020820190508181036000830152612d7e81612d42565b9050919050565b7f4f6e6c792063616c6c61626c65206279206f776e657200000000000000000000600082015250565b6000612dbb6016836121c0565b9150612dc682612d85565b602082019050919050565b60006020820190508181036000830152612dea81612dae565b9050919050565b7f5265717569726564206e756d626572206f6620706f737473206e6f742072656160008201527f6368656400000000000000000000000000000000000000000000000000000000602082015250565b6000612e4d6024836121c0565b9150612e5882612df1565b604082019050919050565b60006020820190508181036000830152612e7c81612e40565b9050919050565b6000612e8e826120e7565b9150612e99836120e7565b9250827fffffffffffffffffffffffffffffffffffffffffffffffffffffffffffffffff03821115612ece57612ecd612b81565b5b828201905092915050565b612ee281612679565b82525050565b612ef1816126af565b82525050565b600081519050919050565b600082825260208201905092915050565b6000612f1e82612ef7565b612f288185612f02565b9350612f388185602086016121d1565b612f4181612204565b840191505092915050565b600060e082019050612f61600083018a61218b565b612f6e602083018961214a565b612f7b6040830188612ed9565b612f886060830187612ee8565b612f95608083018661214a565b612fa260a083018561214a565b81810360c0830152612fb48184612f13565b905098975050505050505050565b6000608082019050612fd76000830187612ed9565b612fe4602083018661214a565b612ff16040830185612ee8565b612ffe606083018461214a565b95945050505050565b7f43616e6e6f74207472616e7366657220746f2073656c66000000000000000000600082015250565b600061303d6017836121c0565b915061304882613007565b602082019050919050565b6000602082019050818103600083015261306c81613030565b9050919050565b6000819050919050565b600061309861309361308e84612159565b613073565b612159565b9050919050565b60006130aa8261307d565b9050919050565b60006130bc8261309f565b9050919050565b60008160601b9050919050565b60006130db826130c3565b9050919050565b60006130ed826130d0565b9050919050565b613105613100826130b1565b6130e2565b82525050565b6000819050919050565b613126613121826120e7565b61310b565b82525050565b600061313882856130f4565b6014820191506131488284613115565b6020820191508190509392505050565b600060608201905061316d600083018661218b565b61317a602083018561214a565b818103604083015261318c8184612f13565b9050949350505050565b7f756e61626c6520746f207472616e73666572416e6443616c6c20746f206f726160008201527f636c650000000000000000000000000000000000000000000000000000000000602082015250565b60006131f26023836121c0565b91506131fd82613196565b604082019050919050565b60006020820190508181036000830152613221816131e5565b9050919050565b7f4e487b7100000000000000000000000000000000000000000000000000000000600052601260045260246000fd5b6000613262826120e7565b915061326d836120e7565b92508261327d5761327c613228565b5b828206905092915050565b60008160011c9050919050565b6000808291508390505b60018511156132df578086048111156132bb576132ba612b81565b5b60018516156132ca5780820291505b80810290506132d885613288565b945061329f565b94509492505050565b6000826132f857600190506133b4565b8161330657600090506133b4565b816001811461331c576002811461332657613355565b60019150506133b4565b60ff84111561333857613337612b81565b5b8360020a91508482111561334f5761334e612b81565b5b506133b4565b5060208310610133831016604e8410600b841016171561338a5782820a90508381111561338557613384612b81565b5b6133b4565b6133978484846001613295565b925090508184048111156133ae576133ad612b81565b5b81810290505b9392505050565b60006133c6826120e7565b91506133d1836120e7565b92506133fe7fffffffffffffffffffffffffffffffffffffffffffffffffffffffffffffffff84846132e8565b90509291505056fea26469706673582212207060b54731913ce3ddbb6351c079934cdebc978054a52631fefb5f0de817e46464736f6c63430008090033",
  "linkReferences": {},
  "deployedLinkReferences": {}
}