{
  "_format": "hh-sol-artifact-1",
  "contractName": "Maven",
  "sourceName": "contracts/Maven.sol",
  "abi": [
    {
      "inputs": [
        {
          "internalType": "address",
          "name": "_linkTokenAddress",
          "type": "address"
        }
      ],
      "stateMutability": "nonpayable",
      "type": "constructor"
    },
    {
      "anonymous": false,
      "inputs": [
        {
          "indexed": true,
          "internalType": "bytes32",
          "name": "id",
          "type": "bytes32"
        }
      ],
      "name": "ChainlinkCancelled",
      "type": "event"
    },
    {
      "anonymous": false,
      "inputs": [
        {
          "indexed": true,
          "internalType": "bytes32",
          "name": "id",
          "type": "bytes32"
        }
      ],
      "name": "ChainlinkFulfilled",
      "type": "event"
    },
    {
      "anonymous": false,
      "inputs": [
        {
          "indexed": true,
          "internalType": "bytes32",
          "name": "id",
          "type": "bytes32"
        }
      ],
      "name": "ChainlinkRequested",
      "type": "event"
    },
    {
      "anonymous": false,
      "inputs": [
        {
          "indexed": true,
          "internalType": "address",
          "name": "from",
          "type": "address"
        },
        {
          "indexed": true,
          "internalType": "address",
          "name": "to",
          "type": "address"
        }
      ],
      "name": "OwnershipTransferRequested",
      "type": "event"
    },
    {
      "anonymous": false,
      "inputs": [
        {
          "indexed": true,
          "internalType": "address",
          "name": "from",
          "type": "address"
        },
        {
          "indexed": true,
          "internalType": "address",
          "name": "to",
          "type": "address"
        }
      ],
      "name": "OwnershipTransferred",
      "type": "event"
    },
    {
      "anonymous": false,
      "inputs": [
        {
          "indexed": true,
          "internalType": "bytes32",
          "name": "requestId",
          "type": "bytes32"
        },
        {
          "indexed": true,
          "internalType": "uint256",
          "name": "response",
          "type": "uint256"
        }
      ],
      "name": "RequestForInfoFulfilled",
      "type": "event"
    },
    {
      "inputs": [],
      "name": "acceptOwnership",
      "outputs": [],
      "stateMutability": "nonpayable",
      "type": "function"
    },
    {
      "inputs": [
        {
          "internalType": "address",
          "name": "",
          "type": "address"
        }
      ],
      "name": "agencyAddress",
      "outputs": [
        {
          "internalType": "string",
          "name": "",
          "type": "string"
        }
      ],
      "stateMutability": "view",
      "type": "function"
    },
    {
      "inputs": [
        {
          "internalType": "address",
          "name": "_agencyAddress",
          "type": "address"
        },
        {
          "internalType": "string",
          "name": "_agencyName",
          "type": "string"
        }
      ],
      "name": "allowAgencyAddress",
      "outputs": [],
      "stateMutability": "nonpayable",
      "type": "function"
    },
    {
      "inputs": [
        {
          "internalType": "bytes32",
          "name": "_requestId",
          "type": "bytes32"
        },
        {
          "internalType": "uint256",
          "name": "_payment",
          "type": "uint256"
        },
        {
          "internalType": "bytes4",
          "name": "_callbackFunctionId",
          "type": "bytes4"
        },
        {
          "internalType": "uint256",
          "name": "_expiration",
          "type": "uint256"
        }
      ],
      "name": "cancelRequest",
      "outputs": [],
      "stateMutability": "nonpayable",
      "type": "function"
    },
    {
      "inputs": [
        {
          "internalType": "address",
          "name": "_agencyAddress",
          "type": "address"
        }
      ],
      "name": "checkAgency",
      "outputs": [
        {
          "internalType": "string",
          "name": "",
          "type": "string"
        }
      ],
      "stateMutability": "view",
      "type": "function"
    },
    {
      "inputs": [
        {
          "internalType": "uint256",
          "name": "_dealId",
          "type": "uint256"
        }
      ],
      "name": "checkAgencyProgress",
      "outputs": [],
      "stateMutability": "nonpayable",
      "type": "function"
    },
    {
      "inputs": [
        {
          "internalType": "address",
          "name": "_oracle",
          "type": "address"
        },
        {
          "internalType": "string",
          "name": "_jobId",
          "type": "string"
        },
        {
          "internalType": "string",
          "name": "_lensProfileId",
          "type": "string"
        }
      ],
      "name": "checkProfilePosts",
      "outputs": [],
      "stateMutability": "nonpayable",
      "type": "function"
    },
    {
      "inputs": [],
      "name": "contractBalances",
      "outputs": [
        {
          "internalType": "uint256",
          "name": "eth",
          "type": "uint256"
        },
        {
          "internalType": "uint256",
          "name": "link",
          "type": "uint256"
        }
      ],
      "stateMutability": "view",
      "type": "function"
    },
    {
      "inputs": [],
      "name": "dealCounter",
      "outputs": [
        {
          "internalType": "uint256",
          "name": "",
          "type": "uint256"
        }
      ],
      "stateMutability": "view",
      "type": "function"
    },
    {
      "inputs": [
        {
          "internalType": "uint256",
          "name": "",
          "type": "uint256"
        }
      ],
      "name": "deals",
      "outputs": [
        {
          "internalType": "uint256",
          "name": "dealId",
          "type": "uint256"
        },
        {
          "internalType": "address",
          "name": "client",
          "type": "address"
        },
        {
          "internalType": "address",
          "name": "contractingAgency",
          "type": "address"
        },
        {
          "internalType": "uint256",
          "name": "dealAmount",
          "type": "uint256"
        },
        {
          "internalType": "uint256",
          "name": "requiredNumberOfPosts",
          "type": "uint256"
        },
        {
          "internalType": "bool",
          "name": "startDeal",
          "type": "bool"
        },
        {
          "internalType": "bool",
          "name": "isDealCancelled",
          "type": "bool"
        },
        {
          "internalType": "bool",
          "name": "isDealDone",
          "type": "bool"
        },
        {
          "internalType": "string",
          "name": "lensProfileId",
          "type": "string"
        },
        {
          "internalType": "uint256",
          "name": "numberOfAgencyPosts",
          "type": "uint256"
        },
        {
          "internalType": "uint256",
          "name": "postsBeforeContract",
          "type": "uint256"
        }
      ],
      "stateMutability": "view",
      "type": "function"
    },
    {
      "inputs": [
        {
          "internalType": "bytes32",
          "name": "_requestId",
          "type": "bytes32"
        },
        {
          "internalType": "uint256",
          "name": "_info",
          "type": "uint256"
        }
      ],
      "name": "fulfillRequestInfo",
      "outputs": [],
      "stateMutability": "nonpayable",
      "type": "function"
    },
    {
      "inputs": [],
      "name": "lastRetrievedInfo",
      "outputs": [
        {
          "internalType": "uint256",
          "name": "",
          "type": "uint256"
        }
      ],
      "stateMutability": "view",
      "type": "function"
    },
    {
      "inputs": [],
      "name": "owner",
      "outputs": [
        {
          "internalType": "address",
          "name": "",
          "type": "address"
        }
      ],
      "stateMutability": "view",
      "type": "function"
    },
    {
      "inputs": [
        {
          "internalType": "uint256",
          "name": "_dealId",
          "type": "uint256"
        }
      ],
      "name": "revokeDeal",
      "outputs": [],
      "stateMutability": "nonpayable",
      "type": "function"
    },
    {
      "inputs": [
        {
          "internalType": "address",
          "name": "_agency",
          "type": "address"
        },
        {
          "internalType": "uint256",
          "name": "_amount",
          "type": "uint256"
        },
        {
          "internalType": "uint256",
          "name": "_requiredNumberOfPosts",
          "type": "uint256"
        },
        {
          "internalType": "string",
          "name": "_lensProfileId",
          "type": "string"
        }
      ],
      "name": "startDeal",
      "outputs": [],
      "stateMutability": "payable",
      "type": "function"
    },
    {
      "inputs": [
        {
          "internalType": "address",
          "name": "to",
          "type": "address"
        }
      ],
      "name": "transferOwnership",
      "outputs": [],
      "stateMutability": "nonpayable",
      "type": "function"
    },
    {
      "inputs": [],
      "name": "withdrawBalance",
      "outputs": [],
      "stateMutability": "nonpayable",
      "type": "function"
    },
    {
      "inputs": [],
      "name": "withdrawLink",
      "outputs": [],
      "stateMutability": "nonpayable",
      "type": "function"
    }
  ],
  "bytecode": "0x608060405260016004553480156200001657600080fd5b50604051620035863803806200358683398181016040528101906200003c919062000335565b338060008073ffffffffffffffffffffffffffffffffffffffff168273ffffffffffffffffffffffffffffffffffffffff161415620000b2576040517f08c379a0000000000000000000000000000000000000000000000000000000008152600401620000a990620003c8565b60405180910390fd5b81600660006101000a81548173ffffffffffffffffffffffffffffffffffffffff021916908373ffffffffffffffffffffffffffffffffffffffff160217905550600073ffffffffffffffffffffffffffffffffffffffff168173ffffffffffffffffffffffffffffffffffffffff16146200013a5762000139816200015560201b60201c565b5b5050506200014e816200028760201b60201c565b506200045c565b3373ffffffffffffffffffffffffffffffffffffffff168173ffffffffffffffffffffffffffffffffffffffff161415620001c7576040517f08c379a0000000000000000000000000000000000000000000000000000000008152600401620001be906200043a565b60405180910390fd5b80600760006101000a81548173ffffffffffffffffffffffffffffffffffffffff021916908373ffffffffffffffffffffffffffffffffffffffff1602179055508073ffffffffffffffffffffffffffffffffffffffff16600660009054906101000a900473ffffffffffffffffffffffffffffffffffffffff1673ffffffffffffffffffffffffffffffffffffffff167fed8889f560326eb138920d842192f0eb3dd22b4f139c87a2c57538e05bae127860405160405180910390a350565b80600260006101000a81548173ffffffffffffffffffffffffffffffffffffffff021916908373ffffffffffffffffffffffffffffffffffffffff16021790555050565b600080fd5b600073ffffffffffffffffffffffffffffffffffffffff82169050919050565b6000620002fd82620002d0565b9050919050565b6200030f81620002f0565b81146200031b57600080fd5b50565b6000815190506200032f8162000304565b92915050565b6000602082840312156200034e576200034d620002cb565b5b60006200035e848285016200031e565b91505092915050565b600082825260208201905092915050565b7f43616e6e6f7420736574206f776e657220746f207a65726f0000000000000000600082015250565b6000620003b060188362000367565b9150620003bd8262000378565b602082019050919050565b60006020820190508181036000830152620003e381620003a1565b9050919050565b7f43616e6e6f74207472616e7366657220746f2073656c66000000000000000000600082015250565b60006200042260178362000367565b91506200042f82620003ea565b602082019050919050565b60006020820190508181036000830152620004558162000413565b9050919050565b61311a806200046c6000396000f3fe6080604052600436106101095760003560e01c80638dc654a211610095578063b451b80511610064578063b451b8051461032f578063d40ffd3214610358578063ec65d0f814610381578063f2fde38b146103aa578063f9ae73a8146103d357610109565b80638dc654a21461029457806392bb9e18146102ab578063a760d948146102d6578063acf2a11f1461031357610109565b806358088d8d116100dc57806358088d8d146101d55780635fd8c710146101fe57806379ba50971461021557806383777b391461022c5780638da5cb5b1461026957610109565b806303988f841461010e5780632163885a14610155578063217328b6146101815780634642b607146101ac575b600080fd5b34801561011a57600080fd5b5061013560048036038101906101309190611e8d565b6103fc565b60405161014c9b9a99989796959493929190611fbe565b60405180910390f35b34801561016157600080fd5b5061016a610545565b604051610178929190612070565b60405180910390f35b34801561018d57600080fd5b506101966105e7565b6040516101a39190612099565b60405180910390f35b3480156101b857600080fd5b506101d360048036038101906101ce9190612215565b6105ed565b005b3480156101e157600080fd5b506101fc60048036038101906101f79190611e8d565b610645565b005b34801561020a57600080fd5b50610213610758565b005b34801561022157600080fd5b5061022a6107a9565b005b34801561023857600080fd5b50610253600480360381019061024e9190612271565b610940565b604051610260919061229e565b60405180910390f35b34801561027557600080fd5b5061027e6109e0565b60405161028b91906122c0565b60405180910390f35b3480156102a057600080fd5b506102a9610a0a565b005b3480156102b757600080fd5b506102c0610b75565b6040516102cd9190612099565b60405180910390f35b3480156102e257600080fd5b506102fd60048036038101906102f89190612271565b610b7b565b60405161030a919061229e565b60405180910390f35b61032d600480360381019061032891906122db565b610cdb565b005b34801561033b57600080fd5b506103566004803603810190610351919061235e565b610e3a565b005b34801561036457600080fd5b5061037f600480360381019061037a9190611e8d565b610f4e565b005b34801561038d57600080fd5b506103a860048036038101906103a39190612477565b610fe9565b005b3480156103b657600080fd5b506103d160048036038101906103cc9190612271565b611003565b005b3480156103df57600080fd5b506103fa60048036038101906103f591906124de565b611017565b005b600a6020528060005260406000206000915090508060000154908060010160009054906101000a900473ffffffffffffffffffffffffffffffffffffffff16908060020160009054906101000a900473ffffffffffffffffffffffffffffffffffffffff16908060030154908060040154908060050160009054906101000a900460ff16908060050160019054906101000a900460ff16908060050160029054906101000a900460ff16908060060180546104b69061254d565b80601f01602080910402602001604051908101604052809291908181526020018280546104e29061254d565b801561052f5780601f106105045761010080835404028352916020019161052f565b820191906000526020600020905b81548152906001019060200180831161051257829003601f168201915b505050505090806007015490806008015490508b565b6000804791506000610555611156565b90508073ffffffffffffffffffffffffffffffffffffffff166370a08231306040518263ffffffff1660e01b815260040161059091906122c0565b60206040518083038186803b1580156105a857600080fd5b505afa1580156105bc573d6000803e3d6000fd5b505050506040513d601f19601f820116820180604052508101906105e09190612594565b9150509091565b600b5481565b80600960008473ffffffffffffffffffffffffffffffffffffffff1673ffffffffffffffffffffffffffffffffffffffff1681526020019081526020016000209080519060200190610640929190611d19565b505050565b6000600a600083815260200190815260200160002090508060050160009054906101000a900460ff166106ad576040517f08c379a00000000000000000000000000000000000000000000000000000000081526004016106a490612633565b60405180910390fd5b8060050160019054906101000a900460ff16156106ff576040517f08c379a00000000000000000000000000000000000000000000000000000000081526004016106f69061269f565b60405180910390fd5b60018160050160016101000a81548160ff02191690831515021790555060008160010160009054906101000a900473ffffffffffffffffffffffffffffffffffffffff169050610753818360030154611180565b505050565b61076061120e565b3373ffffffffffffffffffffffffffffffffffffffff166108fc479081150290604051600060405180830381858888f193505050501580156107a6573d6000803e3d6000fd5b50565b600760009054906101000a900473ffffffffffffffffffffffffffffffffffffffff1673ffffffffffffffffffffffffffffffffffffffff163373ffffffffffffffffffffffffffffffffffffffff1614610839576040517f08c379a00000000000000000000000000000000000000000000000000000000081526004016108309061270b565b60405180910390fd5b6000600660009054906101000a900473ffffffffffffffffffffffffffffffffffffffff16905033600660006101000a81548173ffffffffffffffffffffffffffffffffffffffff021916908373ffffffffffffffffffffffffffffffffffffffff1602179055506000600760006101000a81548173ffffffffffffffffffffffffffffffffffffffff021916908373ffffffffffffffffffffffffffffffffffffffff1602179055503373ffffffffffffffffffffffffffffffffffffffff168173ffffffffffffffffffffffffffffffffffffffff167f8be0079c531659141344cd1fd0a4f28419497f9722a3daafe3b4186f6b6457e060405160405180910390a350565b6009602052806000526040600020600091509050805461095f9061254d565b80601f016020809104026020016040519081016040528092919081815260200182805461098b9061254d565b80156109d85780601f106109ad576101008083540402835291602001916109d8565b820191906000526020600020905b8154815290600101906020018083116109bb57829003601f168201915b505050505081565b6000600660009054906101000a900473ffffffffffffffffffffffffffffffffffffffff16905090565b610a1261120e565b6000610a1c611156565b90508073ffffffffffffffffffffffffffffffffffffffff1663a9059cbb338373ffffffffffffffffffffffffffffffffffffffff166370a08231306040518263ffffffff1660e01b8152600401610a7491906122c0565b60206040518083038186803b158015610a8c57600080fd5b505afa158015610aa0573d6000803e3d6000fd5b505050506040513d601f19601f82011682018060405250810190610ac49190612594565b6040518363ffffffff1660e01b8152600401610ae192919061272b565b602060405180830381600087803b158015610afb57600080fd5b505af1158015610b0f573d6000803e3d6000fd5b505050506040513d601f19601f82011682018060405250810190610b339190612780565b610b72576040517f08c379a0000000000000000000000000000000000000000000000000000000008152600401610b69906127f9565b60405180910390fd5b50565b60085481565b60606000600960008473ffffffffffffffffffffffffffffffffffffffff1673ffffffffffffffffffffffffffffffffffffffff1681526020019081526020016000208054610bc99061254d565b90501415610c0c576040517f08c379a0000000000000000000000000000000000000000000000000000000008152600401610c0390612865565b60405180910390fd5b600960008373ffffffffffffffffffffffffffffffffffffffff1673ffffffffffffffffffffffffffffffffffffffff1681526020019081526020016000208054610c569061254d565b80601f0160208091040260200160405190810160405280929190818152602001828054610c829061254d565b8015610ccf5780601f10610ca457610100808354040283529160200191610ccf565b820191906000526020600020905b815481529060010190602001808311610cb257829003601f168201915b50505050509050919050565b82341015610d1e576040517f08c379a0000000000000000000000000000000000000000000000000000000008152600401610d15906128d1565b60405180910390fd5b600b6000815480929190610d3190612920565b91905055506000600a6000600b5481526020019081526020016000209050600b548160000181905550338160010160006101000a81548173ffffffffffffffffffffffffffffffffffffffff021916908373ffffffffffffffffffffffffffffffffffffffff160217905550848160020160006101000a81548173ffffffffffffffffffffffffffffffffffffffff021916908373ffffffffffffffffffffffffffffffffffffffff16021790555083816003018190555082816004018190555060018160050160006101000a81548160ff02191690831515021790555081816006019080519060200190610e27929190611d19565b5060085481600801819055505050505050565b610e4261120e565b6000610e5d610e50846112a0565b63f9ae73a860e01b6112ca565b9050610ea96040518060400160405280600981526020017f70726f66696c654964000000000000000000000000000000000000000000000081525083836112fa9092919063ffffffff16565b610f286040518060400160405280600981526020017f6f7065726174696f6e00000000000000000000000000000000000000000000008152506040518060400160405280600b81526020017f6765742d70726f66696c65000000000000000000000000000000000000000000815250836112fa9092919063ffffffff16565b610f478482670de0b6b3a76400006001610f429190612969565b61132d565b5050505050565b6000600a600083815260200190815260200160002090508060050160009054906101000a900460ff16610fb6576040517f08c379a0000000000000000000000000000000000000000000000000000000008152600401610fad90612633565b60405180910390fd5b60008160080154600854610fca91906129c3565b9050816004015481610fdc91906129c3565b8260070181905550505050565b610ff161120e565b610ffd848484846113f7565b50505050565b61100b61120e565b6110148161150a565b50565b816005600082815260200190815260200160002060009054906101000a900473ffffffffffffffffffffffffffffffffffffffff1673ffffffffffffffffffffffffffffffffffffffff163373ffffffffffffffffffffffffffffffffffffffff16146110b9576040517f08c379a00000000000000000000000000000000000000000000000000000000081526004016110b090612a69565b60405180910390fd5b6005600082815260200190815260200160002060006101000a81549073ffffffffffffffffffffffffffffffffffffffff0219169055807f7cc135e0cebb02c3480ae5d74d377283180a2601f8f644edf7987b009316c63a60405160405180910390a281837f0d3246c323984532398da5b4e6d0295b5c05feb44bb697c8ad8d2b022c9e60e960405160405180910390a381600881905550505050565b6000600260009054906101000a900473ffffffffffffffffffffffffffffffffffffffff16905090565b804710156111c3576040517f08c379a00000000000000000000000000000000000000000000000000000000081526004016111ba90612ad5565b60405180910390fd5b8173ffffffffffffffffffffffffffffffffffffffff166108fc829081150290604051600060405180830381858888f19350505050158015611209573d6000803e3d6000fd5b505050565b600660009054906101000a900473ffffffffffffffffffffffffffffffffffffffff1673ffffffffffffffffffffffffffffffffffffffff163373ffffffffffffffffffffffffffffffffffffffff161461129e576040517f08c379a000000000000000000000000000000000000000000000000000000000815260040161129590612b41565b60405180910390fd5b565b6000808290506000815114156112bc576000801b9150506112c5565b60208301519150505b919050565b6112d2611d9f565b6112da611d9f565b6112f184308584611639909392919063ffffffff16565b91505092915050565b6113118284608001516116e990919063ffffffff16565b6113288184608001516116e990919063ffffffff16565b505050565b60008060045490506001816113429190612b61565b6004819055506000633c6d41b960e01b600080876000015188604001518660028b60800151600001516040516024016113819796959493929190612c2a565b604051602081830303815290604052907bffffffffffffffffffffffffffffffffffffffffffffffffffffffff19166020820180517bffffffffffffffffffffffffffffffffffffffffffffffffffffffff838183161783525050505090506113ec8683868461170e565b925050509392505050565b60006005600086815260200190815260200160002060009054906101000a900473ffffffffffffffffffffffffffffffffffffffff1690506005600086815260200190815260200160002060006101000a81549073ffffffffffffffffffffffffffffffffffffffff0219169055847fe1fe3afa0f7f761ff0a8b89086790efd5140d2907ebd5b7ff6bfcb5e075fd4c560405160405180910390a28073ffffffffffffffffffffffffffffffffffffffff16636ee4d553868686866040518563ffffffff1660e01b81526004016114d19493929190612ca0565b600060405180830381600087803b1580156114eb57600080fd5b505af11580156114ff573d6000803e3d6000fd5b505050505050505050565b3373ffffffffffffffffffffffffffffffffffffffff168173ffffffffffffffffffffffffffffffffffffffff161415611579576040517f08c379a000000000000000000000000000000000000000000000000000000000815260040161157090612d31565b60405180910390fd5b80600760006101000a81548173ffffffffffffffffffffffffffffffffffffffff021916908373ffffffffffffffffffffffffffffffffffffffff1602179055508073ffffffffffffffffffffffffffffffffffffffff16600660009054906101000a900473ffffffffffffffffffffffffffffffffffffffff1673ffffffffffffffffffffffffffffffffffffffff167fed8889f560326eb138920d842192f0eb3dd22b4f139c87a2c57538e05bae127860405160405180910390a350565b611641611d9f565b61165185608001516101006118b2565b508385600001818152505082856020019073ffffffffffffffffffffffffffffffffffffffff16908173ffffffffffffffffffffffffffffffffffffffff16815250508185604001907bffffffffffffffffffffffffffffffffffffffffffffffffffffffff191690817bffffffffffffffffffffffffffffffffffffffffffffffffffffffff191681525050849050949350505050565b6116f6826003835161191c565b6117098183611aa190919063ffffffff16565b505050565b60003084604051602001611723929190612e0a565b604051602081830303815290604052805190602001209050846005600083815260200190815260200160002060006101000a81548173ffffffffffffffffffffffffffffffffffffffff021916908373ffffffffffffffffffffffffffffffffffffffff160217905550807fb5e6e01e79f91267dc17b4e6314d5d4d03593d2ceee0fbb452b750bd70ea5af960405160405180910390a2600260009054906101000a900473ffffffffffffffffffffffffffffffffffffffff1673ffffffffffffffffffffffffffffffffffffffff16634000aea08685856040518463ffffffff1660e01b815260040161181993929190612e36565b602060405180830381600087803b15801561183357600080fd5b505af1158015611847573d6000803e3d6000fd5b505050506040513d601f19601f8201168201806040525081019061186b9190612780565b6118aa576040517f08c379a00000000000000000000000000000000000000000000000000000000081526004016118a190612ee6565b60405180910390fd5b949350505050565b6118ba611e0c565b60006020836118c99190612f35565b146118f5576020826118db9190612f35565b60206118e791906129c3565b826118f29190612b61565b91505b81836020018181525050604051808452600081528281016020016040525082905092915050565b60178167ffffffffffffffff16116119535761194d8160058460ff16901b60ff161784611ac390919063ffffffff16565b50611a9c565b60ff8167ffffffffffffffff16116119a957611982601860058460ff16901b1784611ac390919063ffffffff16565b506119a38167ffffffffffffffff16600185611ae39092919063ffffffff16565b50611a9b565b61ffff8167ffffffffffffffff1611611a00576119d9601960058460ff16901b1784611ac390919063ffffffff16565b506119fa8167ffffffffffffffff16600285611ae39092919063ffffffff16565b50611a9a565b63ffffffff8167ffffffffffffffff1611611a5957611a32601a60058460ff16901b1784611ac390919063ffffffff16565b50611a538167ffffffffffffffff16600485611ae39092919063ffffffff16565b50611a99565b611a76601b60058460ff16901b1784611ac390919063ffffffff16565b50611a978167ffffffffffffffff16600885611ae39092919063ffffffff16565b505b5b5b5b505050565b611aa9611e0c565b611abb83846000015151848551611b05565b905092915050565b611acb611e0c565b611adb8384600001515184611bf4565b905092915050565b611aeb611e0c565b611afc848560000151518585611c4b565b90509392505050565b611b0d611e0c565b8251821115611b1b57600080fd5b84602001518285611b2c9190612b61565b1115611b6157611b60856002611b5188602001518887611b4c9190612b61565b611cd9565b611b5b9190612969565b611cf5565b5b600080865180518760208301019350808887011115611b805787860182525b60208701925050505b60208410611bc75780518252602082611ba29190612b61565b9150602081611bb19190612b61565b9050602084611bc091906129c3565b9350611b89565b60006001856020036101000a03905080198251168184511681811785525050508692505050949350505050565b611bfc611e0c565b83602001518310611c2257611c218460028660200151611c1c9190612969565b611cf5565b5b8351805160208583010184815381861415611c3e576001820183525b5050508390509392505050565b611c53611e0c565b84602001518483611c649190612b61565b1115611c8c57611c8b8560028685611c7c9190612b61565b611c869190612969565b611cf5565b5b6000600183610100611c9e9190613099565b611ca891906129c3565b90508551838682010185831982511617815281518588011115611ccb5784870182525b505085915050949350505050565b600081831115611ceb57829050611cef565b8190505b92915050565b600082600001519050611d0883836118b2565b50611d138382611aa1565b50505050565b828054611d259061254d565b90600052602060002090601f016020900481019282611d475760008555611d8e565b82601f10611d6057805160ff1916838001178555611d8e565b82800160010185558215611d8e579182015b82811115611d8d578251825591602001919060010190611d72565b5b509050611d9b9190611e26565b5090565b6040518060a0016040528060008019168152602001600073ffffffffffffffffffffffffffffffffffffffff16815260200160007bffffffffffffffffffffffffffffffffffffffffffffffffffffffff1916815260200160008152602001611e06611e0c565b81525090565b604051806040016040528060608152602001600081525090565b5b80821115611e3f576000816000905550600101611e27565b5090565b6000604051905090565b600080fd5b600080fd5b6000819050919050565b611e6a81611e57565b8114611e7557600080fd5b50565b600081359050611e8781611e61565b92915050565b600060208284031215611ea357611ea2611e4d565b5b6000611eb184828501611e78565b91505092915050565b611ec381611e57565b82525050565b600073ffffffffffffffffffffffffffffffffffffffff82169050919050565b6000611ef482611ec9565b9050919050565b611f0481611ee9565b82525050565b60008115159050919050565b611f1f81611f0a565b82525050565b600081519050919050565b600082825260208201905092915050565b60005b83811015611f5f578082015181840152602081019050611f44565b83811115611f6e576000848401525b50505050565b6000601f19601f8301169050919050565b6000611f9082611f25565b611f9a8185611f30565b9350611faa818560208601611f41565b611fb381611f74565b840191505092915050565b600061016082019050611fd4600083018e611eba565b611fe1602083018d611efb565b611fee604083018c611efb565b611ffb606083018b611eba565b612008608083018a611eba565b61201560a0830189611f16565b61202260c0830188611f16565b61202f60e0830187611f16565b8181036101008301526120428186611f85565b9050612052610120830185611eba565b612060610140830184611eba565b9c9b505050505050505050505050565b60006040820190506120856000830185611eba565b6120926020830184611eba565b9392505050565b60006020820190506120ae6000830184611eba565b92915050565b6120bd81611ee9565b81146120c857600080fd5b50565b6000813590506120da816120b4565b92915050565b600080fd5b600080fd5b7f4e487b7100000000000000000000000000000000000000000000000000000000600052604160045260246000fd5b61212282611f74565b810181811067ffffffffffffffff82111715612141576121406120ea565b5b80604052505050565b6000612154611e43565b90506121608282612119565b919050565b600067ffffffffffffffff8211156121805761217f6120ea565b5b61218982611f74565b9050602081019050919050565b82818337600083830152505050565b60006121b86121b384612165565b61214a565b9050828152602081018484840111156121d4576121d36120e5565b5b6121df848285612196565b509392505050565b600082601f8301126121fc576121fb6120e0565b5b813561220c8482602086016121a5565b91505092915050565b6000806040838503121561222c5761222b611e4d565b5b600061223a858286016120cb565b925050602083013567ffffffffffffffff81111561225b5761225a611e52565b5b612267858286016121e7565b9150509250929050565b60006020828403121561228757612286611e4d565b5b6000612295848285016120cb565b91505092915050565b600060208201905081810360008301526122b88184611f85565b905092915050565b60006020820190506122d56000830184611efb565b92915050565b600080600080608085870312156122f5576122f4611e4d565b5b6000612303878288016120cb565b945050602061231487828801611e78565b935050604061232587828801611e78565b925050606085013567ffffffffffffffff81111561234657612345611e52565b5b612352878288016121e7565b91505092959194509250565b60008060006060848603121561237757612376611e4d565b5b6000612385868287016120cb565b935050602084013567ffffffffffffffff8111156123a6576123a5611e52565b5b6123b2868287016121e7565b925050604084013567ffffffffffffffff8111156123d3576123d2611e52565b5b6123df868287016121e7565b9150509250925092565b6000819050919050565b6123fc816123e9565b811461240757600080fd5b50565b600081359050612419816123f3565b92915050565b60007fffffffff0000000000000000000000000000000000000000000000000000000082169050919050565b6124548161241f565b811461245f57600080fd5b50565b6000813590506124718161244b565b92915050565b6000806000806080858703121561249157612490611e4d565b5b600061249f8782880161240a565b94505060206124b087828801611e78565b93505060406124c187828801612462565b92505060606124d287828801611e78565b91505092959194509250565b600080604083850312156124f5576124f4611e4d565b5b60006125038582860161240a565b925050602061251485828601611e78565b9150509250929050565b7f4e487b7100000000000000000000000000000000000000000000000000000000600052602260045260246000fd5b6000600282049050600182168061256557607f821691505b602082108114156125795761257861251e565b5b50919050565b60008151905061258e81611e61565b92915050565b6000602082840312156125aa576125a9611e4d565b5b60006125b88482850161257f565b91505092915050565b7f4465616c20646f6573206e6f74206578697374206f72206e6f7420737461727460008201527f6564000000000000000000000000000000000000000000000000000000000000602082015250565b600061261d602283611f30565b9150612628826125c1565b604082019050919050565b6000602082019050818103600083015261264c81612610565b9050919050565b7f4465616c20697320616c72656164792063616e63656c6c656400000000000000600082015250565b6000612689601983611f30565b915061269482612653565b602082019050919050565b600060208201905081810360008301526126b88161267c565b9050919050565b7f4d7573742062652070726f706f736564206f776e657200000000000000000000600082015250565b60006126f5601683611f30565b9150612700826126bf565b602082019050919050565b60006020820190508181036000830152612724816126e8565b9050919050565b60006040820190506127406000830185611efb565b61274d6020830184611eba565b9392505050565b61275d81611f0a565b811461276857600080fd5b50565b60008151905061277a81612754565b92915050565b60006020828403121561279657612795611e4d565b5b60006127a48482850161276b565b91505092915050565b7f556e61626c6520746f207472616e73666572204c696e6b000000000000000000600082015250565b60006127e3601783611f30565b91506127ee826127ad565b602082019050919050565b60006020820190508181036000830152612812816127d6565b9050919050565b7f4167656e637920646f6573206e6f742065786973740000000000000000000000600082015250565b600061284f601583611f30565b915061285a82612819565b602082019050919050565b6000602082019050818103600083015261287e81612842565b9050919050565b7f496e73756666696369656e74207061796d656e74000000000000000000000000600082015250565b60006128bb601483611f30565b91506128c682612885565b602082019050919050565b600060208201905081810360008301526128ea816128ae565b9050919050565b7f4e487b7100000000000000000000000000000000000000000000000000000000600052601160045260246000fd5b600061292b82611e57565b91507fffffffffffffffffffffffffffffffffffffffffffffffffffffffffffffffff82141561295e5761295d6128f1565b5b600182019050919050565b600061297482611e57565b915061297f83611e57565b9250817fffffffffffffffffffffffffffffffffffffffffffffffffffffffffffffffff04831182151516156129b8576129b76128f1565b5b828202905092915050565b60006129ce82611e57565b91506129d983611e57565b9250828210156129ec576129eb6128f1565b5b828203905092915050565b7f536f75726365206d75737420626520746865206f7261636c65206f662074686560008201527f2072657175657374000000000000000000000000000000000000000000000000602082015250565b6000612a53602883611f30565b9150612a5e826129f7565b604082019050919050565b60006020820190508181036000830152612a8281612a46565b9050919050565b7f496e73756666696369656e742062616c616e6365000000000000000000000000600082015250565b6000612abf601483611f30565b9150612aca82612a89565b602082019050919050565b60006020820190508181036000830152612aee81612ab2565b9050919050565b7f4f6e6c792063616c6c61626c65206279206f776e657200000000000000000000600082015250565b6000612b2b601683611f30565b9150612b3682612af5565b602082019050919050565b60006020820190508181036000830152612b5a81612b1e565b9050919050565b6000612b6c82611e57565b9150612b7783611e57565b9250827fffffffffffffffffffffffffffffffffffffffffffffffffffffffffffffffff03821115612bac57612bab6128f1565b5b828201905092915050565b612bc0816123e9565b82525050565b612bcf8161241f565b82525050565b600081519050919050565b600082825260208201905092915050565b6000612bfc82612bd5565b612c068185612be0565b9350612c16818560208601611f41565b612c1f81611f74565b840191505092915050565b600060e082019050612c3f600083018a611efb565b612c4c6020830189611eba565b612c596040830188612bb7565b612c666060830187612bc6565b612c736080830186611eba565b612c8060a0830185611eba565b81810360c0830152612c928184612bf1565b905098975050505050505050565b6000608082019050612cb56000830187612bb7565b612cc26020830186611eba565b612ccf6040830185612bc6565b612cdc6060830184611eba565b95945050505050565b7f43616e6e6f74207472616e7366657220746f2073656c66000000000000000000600082015250565b6000612d1b601783611f30565b9150612d2682612ce5565b602082019050919050565b60006020820190508181036000830152612d4a81612d0e565b9050919050565b6000819050919050565b6000612d76612d71612d6c84611ec9565b612d51565b611ec9565b9050919050565b6000612d8882612d5b565b9050919050565b6000612d9a82612d7d565b9050919050565b60008160601b9050919050565b6000612db982612da1565b9050919050565b6000612dcb82612dae565b9050919050565b612de3612dde82612d8f565b612dc0565b82525050565b6000819050919050565b612e04612dff82611e57565b612de9565b82525050565b6000612e168285612dd2565b601482019150612e268284612df3565b6020820191508190509392505050565b6000606082019050612e4b6000830186611efb565b612e586020830185611eba565b8181036040830152612e6a8184612bf1565b9050949350505050565b7f756e61626c6520746f207472616e73666572416e6443616c6c20746f206f726160008201527f636c650000000000000000000000000000000000000000000000000000000000602082015250565b6000612ed0602383611f30565b9150612edb82612e74565b604082019050919050565b60006020820190508181036000830152612eff81612ec3565b9050919050565b7f4e487b7100000000000000000000000000000000000000000000000000000000600052601260045260246000fd5b6000612f4082611e57565b9150612f4b83611e57565b925082612f5b57612f5a612f06565b5b828206905092915050565b60008160011c9050919050565b6000808291508390505b6001851115612fbd57808604811115612f9957612f986128f1565b5b6001851615612fa85780820291505b8081029050612fb685612f66565b9450612f7d565b94509492505050565b600082612fd65760019050613092565b81612fe45760009050613092565b8160018114612ffa576002811461300457613033565b6001915050613092565b60ff841115613016576130156128f1565b5b8360020a91508482111561302d5761302c6128f1565b5b50613092565b5060208310610133831016604e8410600b84101617156130685782820a905083811115613063576130626128f1565b5b613092565b6130758484846001612f73565b9250905081840481111561308c5761308b6128f1565b5b81810290505b9392505050565b60006130a482611e57565b91506130af83611e57565b92506130dc7fffffffffffffffffffffffffffffffffffffffffffffffffffffffffffffffff8484612fc6565b90509291505056fea264697066735822122068cd5a8bd9a87cc691a028ee829e729d2cbc3267d2aa871303b5701ff3aec24664736f6c63430008090033",
  "linkReferences": {},
  "deployedLinkReferences": {}
}